:080000000C945E000C9400005A
:100008000C9400000C9400000C9400000C94000068
:100018000C9400000C9400000C9400000C94000058
:100028000C9400000C9400000C9400000C94000048
:100038000C9400000C9400000C9400000C94000038
:100048000C9400000C9400000C9400001027E803A6
:1000580064000A00010000100001100001003200D5
:10006800446F204E6869657420446F204C434420D7
:100078000042616F204E6869657420446F204361B7
:100088006F004D756320636169206461743A2000D4
:100098004320004E6869657420646F3A200020434D
:1000A8002020000080C001000500660002006001F9
:1000B800AC000000F894EE27ECBBF1E0FBBFEBBF0F
:1000C800E5BFF8E1F1BDE1BD8DE0A2E0BB27ED930E
:1000D8008A95E9F780E094E0A0E6ED930197E9F7C7
:1000E800EEEAF0E085919591009761F0A591B591C0
:1000F80005901590BF01F00105900D920197E1F769
:10010800FB01F0CFEFE5EDBFE4E0EEBFC0E6D1E0E4
:100118000C949800E881E7B9369A349BFECF349A5C
:10012800E4B1F5B10C94F901E0E0EBBBE0EFEABB18
:10013800E0E0E8BBE0EFE7BBE0E0E5BBEFEFE4BB06
:10014800E0E0E2BBEFEFE1BBE0E0E7B9E3E8E6B906
:100158007894A89AE0E1EA930E94C7010E94FB0103
:10016800E8E6F0E00E9400020E940402E9E7F0E0FD
:100178000E940002E8EEF3E0FA93EA930E94190263
:100188000E94FB01EAE8F0E00E940002A52DEAE0E7
:100198000E940F030E940A02A52DEAE00E9435037F
:1001A8000E940A02E8E9F0E00E940002E0E0D89923
:1001B800E1E0EA93AFDF4F01F4010E940A030E94D5
:1001C8008B02DF01CB01EAEAF1EF62E070E40E9402
:1001D800B9020E9454023F010E940402EBE9F0E0D8
:1001E8000E940002D301EAE0F0E00E9430030E947E
:1001F8000A02D301EAE0F0E00E9438030E940A02F2
:10020800E6EAF0E00E940002E52DD301F0E0EA17EB
:10021800FB070CF4A898E52DD301F0E0AE17BF0753
:100228000CF4A89AB09906C0B09BFECFE3E65E1620
:1002380008F45394B19906C0B19BFECFE0E0E515F0
:1002480008F45A949DCFFFCFFFE0FA95F1F708958F
:10025800A1B3AF70A1BB919A9098F6DF929AF4DFA0
:10026800A0B39298F1DF929AEFDF9298A7FDF5CFAD
:100278000895A07FAB2BA2BB929A0E942801929866
:100288000E94280108959198A1B3A76FA1BBB2B3AA
:10029800BF70A881EEDFA881A295EBDF919A0C943C
:1002A800F901929A0E942801E0B392980E942801CD
:1002B800E07F08950E942801F4DFAE2FF2DF9198C5
:1002C800E295EA2B08950E942C01E881F0E0E05ABB
:1002D800FE4FE081A981EA0FEA930E944701498015
:1002E800B880229608950E942C01E2E0EA930E94C9
:1002F80047010E942C01ECE0EA930E9447010E940A
:100308002C01E1E0EA930E944701E0E0BE2E4E2E68
:100318000895EF93FF93A8816894AA3019F0E894A0
:100328004A1430F0B394E0E0EA93BA92CCDF36F0A6
:1003380043948EDF909AA881AA93A5DFFF91EF914D
:100348000C94F9011A93E981FA813196E983FA83C9
:100358003197E4911E2FE03019F01A93DADFF3CFCA
:10036800188123960895AA27BB271197F1F70895B6
:100378009198A1B3A76FA1BBB2B3BF70A8810E9427
:100388003D01919A32C092989098A880E881E058EF
:10039800E0936201E881E054E09363010E940E0259
:1003A8000E940E020E940E02DEDFE0E2EA93E0DF26
:1003B800DADFE8E20E941402E4E00E941402E5E8B1
:1003C8000E941402A1B3AF70A1BB919A0E945E0172
:1003D800E53011F0E0E009C00E942C01E6E0EA9364
:1003E8000E9447010E947701E1E021960895E0E02C
:1003F800EA93EA930C946701FA93EA930C94A601A2
:10040800E0E0EA93E1E0EA930C946701E05DEA93A7
:100418000C948D010E94B701E0E3EA930C94BC01AF
:10042800EA930E9447010C94B701E991F99130963B
:1004380039F080ED97E00197F1F7A8953197C9F762
:100448000895552342F4503811F4E0FF04C0319662
:10045800691F791F6BF050E8572711F45F9373C039
:100468005F3F31F0660F000C57956795752F08951B
:100478005F9300200AF073C06CC050E8192E152253
:10048800880F991F9527550F879550E8072E052245
:10049800660F771F7527550F67950895689401C0F3
:1004A800E8945F93F2DF703818F07F3F08F44BC090
:1004B80056E1571BAAF4519558300EF4593030F0D4
:1004C800EFEFFFEF6FEF7FE777F91AC07727552334
:1004D800B9F0EE0FFF1F661F771F5A95D1F710C0AE
:1004E8007727583028F0EF2FF62F672F5850F9CF7D
:1004F800552331F076956795F795E7955A95D1F795
:1005080000200AF47BD05F910895689401C0E894B4
:10051800309760407040B1F0002426F0772312F441
:1005280000946CD0172E7EE1112032F07A95EE0FF0
:10053800FF1F661F111CF9CFEF2FF62F612D5F9358
:100548008ADF5F910895EE27FF27662777275F9157
:100558000895EFEFFFEF6FE77FEF5F910895EFEFFB
:10056800FFEF6FE77FE75F9108955F9386DF70384D
:1005780021F411200AF4EDCFF2CF903809F4E3CF3B
:1005880001240894970B1BF4D4F30020F3CF792FA0
:100598001F932F933F934F9311241127222733271B
:1005A8004427552790E2AE17BF078607410730F06A
:1005B800AE1BBF0B860B410B089401C08894551FD6
:1005C800221F331F111CAA1FBB1F881F441F9A9587
:1005D80051F7F901612D4F913F912F911F9166239A
:1005E80032F0550FEE1FFF1F661F7A9543F229DF81
:1005F8005F910895F195E195F0400895F095609523
:100608007095E195FF4F6F4F7F4F08956F2F660FDD
:10061800660B762F0895002498E0AA0F001C0E1A86
:1006280010F40E0E01C0A1609A95B9F7EA2FA02D1B
:1006380008950024112490E1AA0FBB1F001C111C6F
:100648000E1A1F0A18F40E0E1F1E01C0A1609A95FB
:1006580099F7FD01D001089515D0EBDF0EF4CADF3C
:100668000895D9DFEA2F0895E894B7FF04C0A0954C
:10067800B09511966894F7FDBDDFDBDFFD010EF440
:10068800B9DF0895E894F7FF02C0B4DF6894B7FFB4
:1006980006C0A095B095119600F8039400FA089545
:00000001FF
